:100000000C942A000C943C000C943C000C943C0092
:100010000C943C000C943C000C943C000C943C0070
:100020000C943C000C943C000C943C000C943C0060
:100030000C943C000C943C000C943C000C943C0050
:100040000C943C000C943C000C943C000C943C0040
:100050000C943C0011241FBECFE5D4E0DEBFCDBF21
:1000600020E0A0E6B0E001C01D92A636B207E1F79D
:100070000E943C010C9460010C9400009C012D5FD7
:100080003F4F81E090E002C0880F991F2A95E2F768
:1000900085BB87EE93E00197F1F700C0000083B3C2
:1000A0008F70089590E1899F9001112482958F703F
:1000B000822B0895CF93DF9381E090E00E943E0071
:1000C0000E945200C3E6D0E0898382E090E00E9463
:1000D0003E009981890F898383E090E00E943E0071
:1000E0000E945200888384E090E00E943E00988144
:1000F000890F888315BADF91CF9108950F931F93CD
:10010000CF93DF930E945A00C3E6D0E008811981A3
:100110008FE295E70197F1F700C000000E945A00B6
:100120008881902F982329812123E1E6F0E08081C6
:10013000318190832183809589238883932F9095A3
:1001400029232983811105C0222331F081E090E029
:1001500005C081E090E002C080E090E0DF91CF91A7
:100160001F910F9108958091630080FD24C081FD4F
:1001700024C082FD24C083FD24C084FD24C085FDED
:1001800024C086FD24C0882324F19091640090FD52
:1001900022C091FD22C092FD22C093FD22C094FD99
:1001A00022C095FD22C0892F807496FD20C099231E
:1001B000FCF481E408958AE2089580E3089583E2DF
:1001C000089584E4089587E3089588E3089589E312
:1001D000089583E4089584E3089585E3089586E30C
:1001E000089582E4089581E3089582E3089583E306
:1001F0000895CF93DF938FEF88BBC0E0D0E00CC0B1
:100200000E947E002FEB8AED90E0215080409040CC
:10021000E1F700C000002196C035D1058CF318BA73
:10022000DF91CF9108950F931F93CF93DF9300E059
:1002300010E01AC000FF04C018BAC0E0D0E00FC040
:100240008FEF88BBFACF0E947E002FEB8AED90E003
:10025000215080409040E1F700C000002196CA3054
:10026000D1058CF30F5F1F4F083011051CF3DF9190
:10027000CF911F910F9108958FEF87BB80EF84BBC3
:10028000E1E6F0E0108211820E947E00892BE1F30A
:100290000E94B300809365000E947E00892BE1F3E9
:1002A0000E94B3008093600090916500933311F435
:1002B000833319F00E941301E3CF0E94F900E0CFCD
:0402C000F894FFCFE0
:00000001FF
