:100000000C942A000C943C000C943C000C943C0092
:100010000C943C000C943C000C943C000C943C0070
:100020000C943C000C947E010C943C000C943C001D
:100030000C943C000C943C000C94A1010C943C00EA
:100040000C943C000C943C000C943C000C943C0040
:100050000C943C0011241FBECFE5D4E0DEBFCDBF21
:1000600020E0A0E6B0E001C01D92A936B207E1F79A
:100070000E9443020C94D7030C9400008F939F932B
:1000800080E797E174D09F918F918F9390B39F7089
:10009000807F890F82BB939A93988F939F9380E779
:1000A00097E165D09F918F918F918295807F890F85
:1000B00082BB939A939808958F939F93929ADEDFD1
:1000C0008BE290E054D09F918F9108958F939F93EE
:1000D0009298D4DF87E290E04AD09F918F91089563
:1000E0008F939F9388E290E038D080E382BB939A0D
:1000F000939887E290E03BD08F939F9388EE93E0B4
:1001000036D09F918F9180E382BB939A939887E238
:1001100090E02DD08F939F9388EE93E028D09F910D
:100120008F9180E282BB939A939887E290E01FD0F0
:100130008F939F9388EE93E01AD09F918F9188E2DE
:10014000C5DF8CE0C3DF81E0C1DF8AEF95E00FD02F
:1001500086E0BCDF9F918F9108958F939F9386EEE9
:1001600093E005D09F918F910197B9F7089501977A
:100170000000000000000000D1F708959C012D5FF1
:100180003F4F81E090E002C0880F991F2A95E2F767
:1001900085BB87EE93E00197F1F700C0000083B3C1
:1001A0008F70089590E1899F9001112482958F703E
:1001B000822B0895CF93DF9381E090E00E94BE00F0
:1001C0000E94D200C6E6D0E0898382E090E00E94DF
:1001D000BE009981890F898383E090E00E94BE0070
:1001E0000E94D200888384E090E00E94BE00988143
:1001F000890F888315BADF91CF9108950F931F93CC
:10020000CF93DF930E94DA00C6E6D0E0088119811F
:100210008FE295E70197F1F700C000000E94DA0035
:100220008881902F982329812123E4E6F0E08081C2
:10023000318190832183809589238883932F9095A2
:1002400029232983811105C0222331F081E090E028
:1002500005C081E090E002C080E090E0DF91CF91A6
:100260001F910F9108958091660080FD24C081FD4B
:1002700024C082FD24C083FD24C084FD24C085FDEC
:1002800024C086FD24C0882324F19091670090FD4E
:1002900022C091FD22C092FD22C093FD22C094FD98
:1002A00022C095FD22C0892F807496FD20C099231D
:1002B000FCF481E408958AE2089580E3089583E2DE
:1002C000089584E4089587E3089588E3089589E311
:1002D000089583E4089584E3089585E3089586E30B
:1002E000089582E4089581E3089582E3089583E305
:1002F000089580E487B98FE886B908951F920F9218
:100300000FB60F9211242F938F939F9380916000CB
:100310009091610001969093610080936000883E07
:10032000934039F486B1806486B9109261001092CE
:1003300060009F918F912F910F900FBE0F901F9093
:1003400018951F920F920FB60F921124AF92BF9281
:10035000CF92DF92EF92FF921F932F933F934F9391
:100360005F936F937F938F939F93AF93BF93CF933D
:10037000DF93EF93FF9364B175B180E090E00E944A
:10038000B40220E030E040EA50E40E941A0320E08A
:1003900030E040E85AE30E941A036B017C010E949E
:1003A0007E02162F20E030E040E251E4C701B601A2
:1003B0000E941A030E947E020F2EFAE0AF2EB12C8B
:1003C000F02DCB01B5010E94AF03D82F20E030E023
:1003D00048EC52E4C701B6010E941A030E947E0253
:1003E000CB01B5010E94AF03C82F0E94700086E5C3
:1003F000809368000E945C008FE6809368000E94F2
:100400005C0081E3809368000E945C008AE0809336
:1004100068000E945C0080E3810F809368000E9466
:100420005C008EE2809368000E945C0080E38D0F88
:10043000809368000E945C0080E38C0F80936800CA
:100440000E945C00FF91EF91DF91CF91BF91AF913E
:100450009F918F917F916F915F914F913F912F91DC
:100460001F91FF90EF90DF90CF90BF90AF900F90D3
:100470000FBE0F901F9018958AE683BF1CBE87B3EE
:10048000886087BB0895E4E6F0E01082118280EF77
:1004900084BB8FEF81BB0E9470000E94790181E0D4
:1004A00089BF0E943C0278940E94FE00892BE1F3F0
:1004B0000E94330180936200813379F4809163005C
:1004C0008F3F21F08F5F809363008CBF8FE79EE3A7
:1004D0000197F1F700C00000E7CF823329F7809140
:1004E0006300882321F08150809363008CBF8FE7E5
:1004F0009EE30197F1F700C00000D6CF0E9485026D
:100500006894B1110C94140308950E94F90288F0C4
:100510009F5798F0B92F9927B751B0F0E1F0660FC7
:10052000771F881F991F1AF0BA95C9F714C0B13008
:1005300091F00E941303B1E008950C941303672F08
:10054000782F8827B85F39F0B93FCCF38695779537
:100550006795B395D9F73EF4909580957095619520
:100560007F4F8F4F9F4F0895E89409C097FB3EF44B
:1005700090958095709561957F4F8F4F9F4F9923F0
:10058000A9F0F92F96E9BB279395F695879577956E
:100590006795B795F111F8CFFAF4BB0F11F460FF2E
:1005A0001BC06F5F7F4F8F4F9F4F16C0882311F086
:1005B00096E911C0772321F09EE8872F762F05C09A
:1005C000662371F096E8862F70E060E02AF09A9535
:1005D000660F771F881FDAF7880F9695879597F92A
:1005E000089557FD9058440F551F59F05F3F71F023
:1005F0004795880F97FB991F61F09F3F79F087958A
:100600000895121613061406551FF2CF4695F1DF12
:1006100008C0161617061806991FF1CF86957105A2
:10062000610508940895E894BB2766277727CB01D6
:1006300097F908950E942D030C949E030E94900345
:1006400038F00E94970320F0952311F00C94870353
:100650000C948D0311240C9414030E94F10270F386
:10066000959FC1F3950F50E0551F629FF001729F57
:10067000BB27F00DB11D639FAA27F00DB11DAA1F66
:10068000649F6627B00DA11D661F829F2227B00DB3
:10069000A11D621F739FB00DA11D621F839FA00D3E
:1006A000611D221F749F3327A00D611D231F849F8E
:1006B000600D211D822F762F6A2F11249F575040E5
:1006C0009AF0F1F088234AF0EE0FFF1FBB1F661F60
:1006D000771F881F91505040A9F79E3F510580F029
:1006E0000C9487030C9414035F3FE4F3983ED4F317
:1006F000869577956795B795F795E7959F5FC1F7CD
:10070000FE2B880F911D9695879597F9089597F977
:100710009F6780E870E060E008959FEF80EC0895A7
:1007200000240A94161617061806090608950024D0
:100730000A9412161306140605060895092E03944A
:10074000000C11F4882352F0BB0F40F4BF2B11F4BE
:1007500060FF04C06F5F7F4F8F4F9F4F089597FBDF
:10076000072E16F4009407D077FD09D00E94C3032A
:1007700007FC05D03EF4909581959F4F08957095A4
:1007800061957F4F0895AA1BBB1B51E107C0AA1FAB
:10079000BB1FA617B70710F0A61BB70B881F991F22
:1007A0005A95A9F780959095BC01CD010895F894CC
:0207B000FFCF79
:00000001FF
