:020000020000FC
:020000001CC022
:020020008DC091
:100038008BC08FE58DBF84E08EBF002711278FEF1F
:1000480087BB81BB80EF84BB6FD1BED084E089BF02
:1000580085E08EBD8CEF8DBD83EF8CBD7894DCD0B0
:100068004427482B492B4030D1F3392F282FD4D09F
:100078004427482B492B4030D1F3303491F42030B9
:1000880081F4903471F4803061F411601DD00068FF
:1000980050E512D00F7781E03DD111FD25D01E7FAC
:1000A800DECF64E000685AE007D00F775AE004D04A
:1000B8006A956030B9F7D3CFAFD083E290E071D1C1
:1000C8005A955030C9F708952FD187E519D185E49D
:1000D80017D18CE415D183E413D18FE411D18DE4C9
:1000E8000FD185E40DD108951FD187E409D181E4AA
:1000F80007D183E505D180E203D184E401D185E409
:10010800FFD084E5FDD085E4FBD083E4F9D084E515
:10011800F7D085E4F5D084E4F3D0089505D183E4DD
:10012800EFD08CE4EDD085E4EBD081E4E9D082E532
:10013800E7D008958F9386B1806486B98CEF8DBD22
:1001480083EF8CBD8F9118958F939F93AF93007811
:1001580084B195B19370903019F48038D0F018C0FC
:10016800913019F4803890F00FC0923019F480382B
:1001780048F006C0803810F00F670BC00F6309C045
:100188000F6107C00F6005C0076003C0036001C0AE
:10019800016010FD13C0903039F48E3C28F411FF33
:1001A8000DC01D7FBBDF0AC012FD08C011FD02C0D3
:1001B80012609ADF007808BB146002C008BB1B7F7E
:1001C800AF919F918F91189580E487B98FE886B990
:1001D800189595BB8F939F9384EF91E0ECD09F91F6
:1001E8008F910000000083B38F700895AF93BF9381
:1001F80090E1EFDF8295B82F90E2EBDFB80F90E443
:10020800E8DF8295A82F90E8E4DFA80FCD01AA27A0
:10021800A5BBBF91AF9108956F937F93AF93BF93A1
:10022800E5DF8F939F938FE090E0BBD0DFDF7F9176
:100238006F9186239723A0E6B0E07D916C918C9313
:100248009E937095609586239723BF91AF917F9178
:100258006F910895AF93BF93DC018AE2A0FD2FC090
:1002680080E3A1FD2CC083E2A2FD29C084E4A3FDA4
:1002780026C087E3A4FD23C088E3A5FD20C089E349
:10028800A6FD1DC083E4A7FD1AC084E3B0FD17C016
:1002980085E3B1FD14C086E3B2FD11C082E4B3FD6D
:1002A8000EC081E3B4FD0BC082E3B5FD08C083E353
:1002B800B6FD05C081E4B7FD02C0882700C0BF9124
:1002C800AF9108958F939F9380E797E174D09F91A2
:1002D8008F918F9390B39F70807F890F82BB939A81
:1002E80093988F939F9380E797E165D09F918F9123
:1002F8008F918295807F890F82BB939A93980895F6
:100308008F939F93929ADEDF8BE290E054D09F9177
:100318008F9108958F939F939298D4DF87E290E00E
:100328004AD09F918F9108958F939F9388E290E090
:1003380038D080E382BB939A939887E290E03BD0D1
:100348008F939F9388EE93E036D09F918F9180E3AF
:1003580082BB939A939887E290E02DD08F939F93D6
:1003680088EE93E028D09F918F9180E282BB939A88
:10037800939887E290E01FD08F939F9388EE93E045
:100388001AD09F918F9188E2C5DF8CE0C3DF81E0AE
:10039800C1DF8AEF95E00FD086E0BCDF9F918F9197
:1003A80008958F939F9386EE93E005D09F918F9148
:1003B8000197B9F7089501970000000000000000B8
:0403C800D1F70895CC
:00000001FF
