:100000000C942A000C943C000C943C000C943C0092
:100010000C943C000C943C000C943C000C943C0070
:100020000C94FE000C943C000C943C000C943C009E
:100030000C943C000C943C000C9458010C943C0033
:100040000C943C000C943C000C943C000C943C0040
:100050000C943C0011241FBECFE5D4E0DEBFCDBF21
:1000600020E0A0E6B0E001C01D92AB36B207E1F798
:100070000E940A020C9443020C9400009C012D5F24
:100080003F4F81E090E002C0880F991F2A95E2F768
:1000900085BB87EE93E00197F1F700C0000083B3C2
:1000A0008F70089590E1899F9001112482958F703F
:1000B000822B0895CF93DF9381E090E00E943E0071
:1000C0000E945200C8E6D0E0898382E090E00E945E
:1000D0003E009981890F898383E090E00E943E0071
:1000E0000E945200888384E090E00E943E00988144
:1000F000890F888315BADF91CF9108950F931F93CD
:10010000CF93DF930E945A00C8E6D0E0088119819E
:100110008FE295E70197F1F700C000000E945A00B6
:100120008881902F982329812123E5E6F0E08081C2
:10013000318190832183809589238883932F9095A3
:1001400029232983811105C0222331F081E090E029
:1001500005C081E090E002C080E090E0DF91CF91A7
:100160001F910F9108958091680080FD24C081FD4A
:1001700024C082FD24C083FD24C084FD24C085FDED
:1001800024C086FD24C0882324F19091690090FD4D
:1001900022C091FD22C092FD22C093FD22C094FD99
:1001A00022C095FD22C0892F807496FD20C099231E
:1001B000FCF481E408958AE2089580E3089583E2DF
:1001C000089584E4089587E3089588E3089589E312
:1001D000089583E4089584E3089585E3089586E30C
:1001E000089582E4089581E3089582E3089583E306
:1001F000089580E487B98FE886B908951F920F9219
:100200000FB60F9211248F939F9386B1806486B9A5
:1002100083EF9CEF9DBD8CBD9F918F910F900FBE82
:100220000F901F90189580916700807880936700E9
:1002300024B135B120383105D0F124B135B12F3F8B
:10024000310509F020F4816080936700089524B19E
:1002500035B12038314020F48360809367000895E1
:1002600024B135B12115324020F4876080936700B6
:10027000089524B135B12038324020F48F60809346
:100280006700089524B135B12115334020F48F6102
:1002900080936700089524B135B12038334020F4AD
:1002A0008F638093670008958F6780936700089538
:1002B0001F920F920FB60F9211242F933F934F93DB
:1002C0005F936F937F938F939F93AF93BF93EF93BE
:1002D000FF930E9413018091620090916300892B2B
:1002E00081F484B195B18E3C910558F084B195B1FB
:1002F0008E3C910570F08091600090916100892B97
:1003000041F08091670088BB1092610010926000FC
:1003100015C084B195B18E3C910580F0809160004C
:1003200090916100892B51F480916700807888BB9F
:1003300081E090E09093610080936000FF91EF91E5
:10034000BF91AF919F918F917F916F915F914F91ED
:100350003F912F910F900FBE0F901F901895CF9344
:10036000DF9381E090E0909363008093620080913E
:100370006700806880936700C0E0D0E00CC00E94F6
:100380007E002FEB8AED90E0215080409040E1F715
:1003900000C000002196C035D1058CF38091670024
:1003A0008F77809367001092630010926200DF9154
:1003B000CF9108950F931F93CF93DF9300E010E048
:1003C00021C000FF08C0809167008F77809367008D
:1003D000C0E0D0E012C08091670080688093670021
:1003E000F7CF0E947E002FEB8AED90E021508040F5
:1003F0009040E1F700C000002196CA30D1058CF38F
:100400000F5F1F4F08301105E4F2DF91CF911F916C
:100410000F910895E5E6F0E0108211820E94F90044
:1004200084E089BF85E08EBD83EF9CEF9DBD8CBDD0
:1004300078941092670010926300109262001092FC
:100440006100109260008FEF87BB80EF84BB0E9439
:100450007E00892BE1F30E94B30080936A000E9422
:100460007E00892BE1F30E94B30080936400909199
:100470006A00933311F4833319F00E94DA01E7CF55
:0A0480000E94AF01E4CFF894FFCF13
:00000001FF
